{
  "address": "0x1487541081FCf46D2dF0d2A4B2b8eCcC64951f67",
  "abi": [
    {
      "inputs": [
        {
          "internalType": "address",
          "name": "_beaconRoots",
          "type": "address"
        }
      ],
      "stateMutability": "nonpayable",
      "type": "constructor"
    },
    {
      "inputs": [],
      "name": "getBeaconRoots",
      "outputs": [
        {
          "internalType": "address",
          "name": "",
          "type": "address"
        }
      ],
      "stateMutability": "view",
      "type": "function"
    },
    {
      "inputs": [
        {
          "internalType": "uint256",
          "name": "_timestamp",
          "type": "uint256"
        },
        {
          "internalType": "bytes32[]",
          "name": "_proofs",
          "type": "bytes32[]"
        },
        {
          "internalType": "bytes32",
          "name": "_withdrawalsRoot",
          "type": "bytes32"
        }
      ],
      "name": "verify",
      "outputs": [
        {
          "internalType": "bool",
          "name": "",
          "type": "bool"
        }
      ],
      "stateMutability": "view",
      "type": "function"
    }
  ],
  "transactionHash": "0x847399d6250d717c02dbb49b59e0f3d1b380e28a8a24a4b0e5ea39b2c6f25203",
  "args": [
    "0x716d304cA10a4e8f418FeFC9c4E008EDDdd752bE"
  ],
  "numDeployments": 1,
  "solcInputHash": "e2dbfeb055bcb7180044bb2e108cbea3",
  "bytecode": "0x60a03461007157601f61050038819003918201601f19168301916001600160401b038311848410176100765780849260209460405283398101031261007157516001600160a01b038116810361007157608052604051610473908161008d8239608051818181610151015261018e0152f35b600080fd5b634e487b7160e01b600052604160045260246000fdfe6080604052600436101561001257600080fd5b6000803560e01c908163167580cc1461003a57506322a8735b1461003557600080fd5b61013b565b346100e45760603660031901126100e45760243567ffffffffffffffff918282116100e457366023830112156100e45781600401359283116100e7578260051b6040519260209461008d86840186610119565b8452602485850192820101923684116100e45750602401905b8282106100d5576100d16100bf60443586600435610185565b60405190151581529081906020820190565b0390f35b813581529084019084016100a6565b80fd5b634e487b7160e01b600052604160045260246000fd5b6040810190811067ffffffffffffffff8211176100e757604052565b90601f8019910116810190811067ffffffffffffffff8211176100e757604052565b34610180576000366003190112610180576040517f00000000000000000000000000000000000000000000000000000000000000006001600160a01b03168152602090f35b600080fd5b6101b2909392937f0000000000000000000000000000000000000000000000000000000000000000610305565b92831561029c57600c825103610244579060009283925b825184101561023a576001841b8061192e161460001461021f576101f7906101f18585610396565b516103c0565b925b600019811461020b57600101926101c9565b634e487b7160e01b85526011600452602485fd5b6102349061022d8585610396565b51906103c0565b926101f9565b9250939250501490565b60405162461bcd60e51b815260206004820152602a60248201527f4c32426561636f6e526f6f7456657269666965723a20496e76616c69642070726044820152690dedecc40d8cadccee8d60b31b6064820152608490fd5b60405162461bcd60e51b815260206004820152602c60248201527f4c32426561636f6e526f6f747356657269666965723a20426561636f6e20726f60448201526b1bdd081b9bdd08199bdd5b9960a21b6064820152608490fd5b90816020910312610180575190565b6000809160405193602094858101918252858152610322816100fd565b51915afa3d1561038e573d9067ffffffffffffffff82116100e75760405191610354601f8201601f1916850184610119565b82523d60008484013e5b80610384575b1561037d578161037a92825183010191016102f6565b90565b5050600090565b5080511515610364565b60609061035e565b80518210156103aa5760209160051b010190565b634e487b7160e01b600052603260045260246000fd5b6040918251906060820182811067ffffffffffffffff8211176100e75784528382526020928383018536823752838201528251908051908360005b83811061042b5750505090806000928101838152039060025afa15610421575060005190565b513d6000823e3d90fd5b818184010151818601520184906103fb56fea2646970667358221220d5389fdba8e00b0593546c3ee217fa86b41dc526ba3f16471e3333c2736dc87d64736f6c63430008140033",
  "devdoc": {
    "kind": "dev",
    "methods": {
      "constructor": {
        "params": {
          "_beaconRoots": ": The address of the L2BeaconRoots contract"
        }
      },
      "verify(uint256,bytes32[],bytes32)": {
        "params": {
          "_proofs": ": The Merkle proof",
          "_timestamp": ": The timestamp of the Beacon Block",
          "_withdrawalsRoot": ": The Withdrawals Root to verify"
        }
      }
    },
    "title": "BeaconRootsVerifier",
    "version": 1
  },
  "userdoc": {
    "kind": "user",
    "methods": {
      "verify(uint256,bytes32[],bytes32)": {
        "notice": "Verifies a Withdrawals Root Merkle proof for a given timestamp"
      }
    },
    "notice": "The BeaconRootsVerifier contract responsible for verifyring Beacon Block SSZ Merkle proofs",
    "version": 1
  },
  "storageLayout": {
    "storage": [],
    "types": null
  }
}