{
  "address": "0xb53F763AB795e2A2C13613e25cc54939Ca01b4E1",
  "abi": [
    {
      "inputs": [
        {
          "internalType": "address",
          "name": "_messenger",
          "type": "address"
        }
      ],
      "stateMutability": "nonpayable",
      "type": "constructor"
    },
    {
      "anonymous": false,
      "inputs": [
        {
          "indexed": false,
          "internalType": "uint256",
          "name": "timestamp",
          "type": "uint256"
        },
        {
          "indexed": false,
          "internalType": "bytes32",
          "name": "blockRoot",
          "type": "bytes32"
        }
      ],
      "name": "BeaconRootSet",
      "type": "event"
    },
    {
      "anonymous": false,
      "inputs": [
        {
          "indexed": false,
          "internalType": "address",
          "name": "_l1BeaconRootsSender",
          "type": "address"
        }
      ],
      "name": "Initialized",
      "type": "event"
    },
    {
      "inputs": [],
      "name": "L1_BEACON_ROOTS_SENDER",
      "outputs": [
        {
          "internalType": "address",
          "name": "",
          "type": "address"
        }
      ],
      "stateMutability": "view",
      "type": "function"
    },
    {
      "inputs": [],
      "name": "MESSENGER",
      "outputs": [
        {
          "internalType": "contract IL2CrossDomainMessenger",
          "name": "",
          "type": "address"
        }
      ],
      "stateMutability": "view",
      "type": "function"
    },
    {
      "inputs": [
        {
          "internalType": "uint256",
          "name": "",
          "type": "uint256"
        }
      ],
      "name": "beaconRoots",
      "outputs": [
        {
          "internalType": "bytes32",
          "name": "",
          "type": "bytes32"
        }
      ],
      "stateMutability": "view",
      "type": "function"
    },
    {
      "inputs": [
        {
          "internalType": "uint256",
          "name": "_beacon_timestamp",
          "type": "uint256"
        }
      ],
      "name": "get",
      "outputs": [
        {
          "internalType": "bytes32",
          "name": "",
          "type": "bytes32"
        }
      ],
      "stateMutability": "view",
      "type": "function"
    },
    {
      "inputs": [
        {
          "internalType": "address",
          "name": "_l1BeaconRootsSender",
          "type": "address"
        }
      ],
      "name": "init",
      "outputs": [],
      "stateMutability": "nonpayable",
      "type": "function"
    },
    {
      "inputs": [
        {
          "internalType": "uint256",
          "name": "_beaconTimestamp",
          "type": "uint256"
        },
        {
          "internalType": "bytes32",
          "name": "_beaconRoot",
          "type": "bytes32"
        }
      ],
      "name": "set",
      "outputs": [],
      "stateMutability": "nonpayable",
      "type": "function"
    }
  ],
  "transactionHash": "0x76ea95428edaedec09b243d8d32622768fada1a83416a2b387c1dfe0e4ccdf1b",
  "args": [
    "0x4200000000000000000000000000000000000007"
  ],
  "numDeployments": 1,
  "solcInputHash": "54ce8f023bb4c12ec6b6dbd824e1b84a",
  "bytecode": "0x60a03461007257601f6104cd38819003918201601f19168301916001600160401b038311848410176100775780849260209460405283398101031261007257516001600160a01b038116908190036100725760805260405161043f908161008e823960805181818160f7015261014b0152f35b600080fd5b634e487b7160e01b600052604160045260246000fdfe6080604081815260048036101561001557600080fd5b600092833560e01c90816319ab453c146103305750806364c4ef1a14610126578063927ede2d146100e257806393356a83146100b65780639507d39a1461008f5763f4c9456b1461006557600080fd5b3461008b57602036600319011261008b5760209282913581526001845220549051908152f35b8280fd5b503461008b57602036600319011261008b5760209282913581526001845220549051908152f35b5050346100de57816003193601126100de57905490516001600160a01b039091168152602090f35b5080fd5b5050346100de57816003193601126100de57517f00000000000000000000000000000000000000000000000000000000000000006001600160a01b03168152602090f35b509190346100de57806003193601126100de576001600160a01b0392803590602435907f00000000000000000000000000000000000000000000000000000000000000008616338190036102c7578451968791636e296e4560e01b8352828460209a8b935afa9182156102bd578792610257575b50808754169116036101e257508394827fd5455eaa0f2b65a83ae25b3ba4569cff09ced4128806688b825c1f9e4fd16f3995526001815281848720558351928352820152a180f35b835162461bcd60e51b8152908101869052604360248201527f426561636f6e526f6f74733a2052656d6f74652073656e646572206d7573742060448201527f62652074686520426561636f6e20526f6f74732053656e64657220636f6e74726064820152621858dd60ea1b608482015260a490fd5b909150873d89116102b6575b601f8101601f1916820167ffffffffffffffff8111838210176102a3578991839189528101031261029f5751818116810361029f57903861019a565b8680fd5b634e487b7160e01b895260418552602489fd5b503d610263565b86513d89823e3d90fd5b845162461bcd60e51b8152602081840152603b60248201527f426561636f6e526f6f74733a204469726563742073656e646572206d7573742060448201527f6265207468652043726f7373446f6d61696e4d657373656e67657200000000006064820152608490fd5b9291905034610405576020366003190112610405576001600160a01b038135818116949192908590036104015785549283166103a5576001600160a01b0319831685178655835185815286907f908408e307fc569b417f6cbec5d5a06f44a0a505ac0479b47d421a4b2fd6a1e690602090a180f35b62461bcd60e51b8252602090820152603260248201527f426561636f6e526f6f74733a20436f6e74726163742068617320616c726561646044820152711e481899595b881a5b9a5d1a585b1a5e995960721b6064820152608490fd5b8580fd5b8380fdfea26469706673582212202f649b306b70ddd6e5abe2de872851f5f28f14767986d1cc551d173c3ec5e43b64736f6c63430008140033",
  "devdoc": {
    "events": {
      "BeaconRootSet(uint256,bytes32)": {
        "params": {
          "blockRoot": ": The beacon chain block root at the given timestamp",
          "timestamp": ": The timestamp of the beacon chain block"
        }
      },
      "Initialized(address)": {
        "params": {
          "_l1BeaconRootsSender": ": The address of the L1BeaconRootsSender contract on L1"
        }
      }
    },
    "kind": "dev",
    "methods": {
      "constructor": {
        "params": {
          "_messenger": ": The address of the L2 CrossDomainMessenger contract"
        }
      },
      "get(uint256)": {
        "params": {
          "_beacon_timestamp": ": The timestamp of the beacon chain block"
        }
      },
      "init(address)": {
        "details": "The flow is:       1) Deploy L2BeaconRoots on L2       2) Deploy L1BeaconRootsSender on L1 (passing the address of the deployed L2BeaconRoots to the constructor)       3) Initialize L2BeaconRoots with the L1BeaconRootsSender address",
        "params": {
          "_l1BeaconRootsSender": ": The address of the L1BeaconRootsSender contract"
        }
      },
      "set(uint256,bytes32)": {
        "params": {
          "_beaconRoot": ": The beacon chain block root at the given timestamp",
          "_beaconTimestamp": ": The timestamp of the beacon chain block"
        }
      }
    },
    "title": "L2BeaconRoots",
    "version": 1
  },
  "userdoc": {
    "events": {
      "BeaconRootSet(uint256,bytes32)": {
        "notice": "Event emitted when a beacon block root is setThe event can be emitted multiple times for the same block rootThe event can be emitted for block roots in the pastThe protocol does not guarantee that the event is emitted for every block root"
      },
      "Initialized(address)": {
        "notice": "Event emitted when the smart contract is initialized"
      }
    },
    "kind": "user",
    "methods": {
      "L1_BEACON_ROOTS_SENDER()": {
        "notice": "The L1BeaconRootsSender contract on the L1"
      },
      "MESSENGER()": {
        "notice": "The L1CrossDomainMessenger contract"
      },
      "beaconRoots(uint256)": {
        "notice": "The beacon chain block roots stored by timestamps"
      },
      "get(uint256)": {
        "notice": "Gets the beacon root for a given beacon chain timestamp"
      },
      "init(address)": {
        "notice": "Initialize the contract with the L1BeaconRootsSender address."
      },
      "set(uint256,bytes32)": {
        "notice": "Sets the beacon root for a given beacon chain timestampThis function must be called by the L1BeaconRootsSender contract on L1 through the OP CrossDomainMessenger"
      }
    },
    "notice": "The L2BeaconRoots contract stores the beacon chain block roots on the L2",
    "version": 1
  },
  "storageLayout": {
    "storage": [
      {
        "astId": 258,
        "contract": "contracts/src/L2BeaconRoots.sol:L2BeaconRoots",
        "label": "L1_BEACON_ROOTS_SENDER",
        "offset": 0,
        "slot": "0",
        "type": "t_address"
      },
      {
        "astId": 263,
        "contract": "contracts/src/L2BeaconRoots.sol:L2BeaconRoots",
        "label": "beaconRoots",
        "offset": 0,
        "slot": "1",
        "type": "t_mapping(t_uint256,t_bytes32)"
      }
    ],
    "types": {
      "t_address": {
        "encoding": "inplace",
        "label": "address",
        "numberOfBytes": "20"
      },
      "t_bytes32": {
        "encoding": "inplace",
        "label": "bytes32",
        "numberOfBytes": "32"
      },
      "t_mapping(t_uint256,t_bytes32)": {
        "encoding": "mapping",
        "key": "t_uint256",
        "label": "mapping(uint256 => bytes32)",
        "numberOfBytes": "32",
        "value": "t_bytes32"
      },
      "t_uint256": {
        "encoding": "inplace",
        "label": "uint256",
        "numberOfBytes": "32"
      }
    }
  }
}