{
  "address": "0x716d304cA10a4e8f418FeFC9c4E008EDDdd752bE",
  "abi": [
    {
      "inputs": [
        {
          "internalType": "address",
          "name": "_messenger",
          "type": "address"
        }
      ],
      "stateMutability": "nonpayable",
      "type": "constructor"
    },
    {
      "anonymous": false,
      "inputs": [
        {
          "indexed": false,
          "internalType": "uint256",
          "name": "timestamp",
          "type": "uint256"
        },
        {
          "indexed": false,
          "internalType": "bytes32",
          "name": "blockRoot",
          "type": "bytes32"
        }
      ],
      "name": "BeaconRootSet",
      "type": "event"
    },
    {
      "anonymous": false,
      "inputs": [
        {
          "indexed": false,
          "internalType": "address",
          "name": "_l1BeaconRootsSender",
          "type": "address"
        }
      ],
      "name": "Initialized",
      "type": "event"
    },
    {
      "stateMutability": "nonpayable",
      "type": "fallback"
    },
    {
      "inputs": [
        {
          "internalType": "uint256",
          "name": "_beacon_timestamp",
          "type": "uint256"
        }
      ],
      "name": "get",
      "outputs": [
        {
          "internalType": "bytes32",
          "name": "",
          "type": "bytes32"
        }
      ],
      "stateMutability": "view",
      "type": "function"
    },
    {
      "inputs": [],
      "name": "getCrossDomainMessenger",
      "outputs": [
        {
          "internalType": "address",
          "name": "",
          "type": "address"
        }
      ],
      "stateMutability": "view",
      "type": "function"
    },
    {
      "inputs": [],
      "name": "getL1BeaconRootsSender",
      "outputs": [
        {
          "internalType": "address",
          "name": "",
          "type": "address"
        }
      ],
      "stateMutability": "view",
      "type": "function"
    },
    {
      "inputs": [
        {
          "internalType": "address",
          "name": "_l1BeaconRootsSender",
          "type": "address"
        }
      ],
      "name": "init",
      "outputs": [],
      "stateMutability": "nonpayable",
      "type": "function"
    },
    {
      "inputs": [
        {
          "internalType": "uint256",
          "name": "_beaconTimestamp",
          "type": "uint256"
        },
        {
          "internalType": "bytes32",
          "name": "_beaconRoot",
          "type": "bytes32"
        }
      ],
      "name": "set",
      "outputs": [],
      "stateMutability": "nonpayable",
      "type": "function"
    }
  ],
  "transactionHash": "0x8c9b0654a14f7b587d5248c9f02203fd166d23fd43fe8766fe4899a5a1189dc6",
  "args": [
    "0x4200000000000000000000000000000000000007"
  ],
  "numDeployments": 1,
  "solcInputHash": "e2dbfeb055bcb7180044bb2e108cbea3",
  "bytecode": "0x60a03461007157601f61062038819003918201601f19168301916001600160401b038311848410176100765780849260209460405283398101031261007157516001600160a01b038116810361007157608052604051610593908161008d823960805181818161019f01526102f50152f35b600080fd5b634e487b7160e01b600052604160045260246000fdfe6080604052600436101561001a575b341561047d575b600080fd5b6000803560e01c908162fbba5d1461006c5750806319ab453c1461006757806364c4ef1a146100625780639507d39a1461005d5763f675fa620361000e576102df565b6102b9565b610184565b6100a4565b34610090578060031936011261009057546001600160a01b03166080908152602090f35b80fd5b6001600160a01b0381160361001557565b34610015576020366003190112610015576004356100c181610093565b600054906001600160a01b0390818316610124576001600160a01b0319909216908216176000556040516001600160a01b0390911681527f908408e307fc569b417f6cbec5d5a06f44a0a505ac0479b47d421a4b2fd6a1e69080602081010390a1005b60405162461bcd60e51b815260206004820152603260248201527f426561636f6e526f6f74733a20436f6e74726163742068617320616c726561646044820152711e481899595b881a5b9a5d1a585b1a5e995960721b6064820152608490fd5b34610015576040366003190112610015576001600160a01b037f00000000000000000000000000000000000000000000000000000000000000008116903382900361024e57602060049260405193848092636e296e4560e01b82525afa9081156102495761020992600092610219575b506000546001600160a01b0316911614610380565b6102176024356004356103fe565b005b61023b91925060203d8111610242575b6102338183610324565b81019061035c565b90386101f4565b503d610229565b610374565b60405162461bcd60e51b815260206004820152603b60248201527f426561636f6e526f6f74733a204469726563742073656e646572206d7573742060448201527f6265207468652043726f7373446f6d61696e4d657373656e67657200000000006064820152608490fd5b346100155760203660031901126100155760206102d7600435610503565b604051908152f35b34610015576000366003190112610015576040517f00000000000000000000000000000000000000000000000000000000000000006001600160a01b03168152602090f35b90601f8019910116810190811067ffffffffffffffff82111761034657604052565b634e487b7160e01b600052604160045260246000fd5b90816020910312610015575161037181610093565b90565b6040513d6000823e3d90fd5b1561038757565b60405162461bcd60e51b815260206004820152604360248201527f426561636f6e526f6f74733a2052656d6f74652073656e646572206d7573742060448201527f62652074686520426561636f6e20526f6f74732053656e64657220636f6e74726064820152621858dd60ea1b608482015260a490fd5b611fff9081810691820192838311610478577fd5455eaa0f2b65a83ae25b3ba4569cff09ced4128806688b825c1f9e4fd16f39936040936000527fe86309630a2abec088d5b96b65e4f174653522755626d469c576bd2ca75f209e60205282846000205560005280836000205582519182526020820152a1565b6104ed565b6020360361049957610490600035610503565b60005260206000f35b60405162461bcd60e51b815260206004820152602660248201527f426561636f6e526f6f74733a20496e76616c69642066756e6374696f6e2073656044820152653632b1ba37b960d11b6064820152608490fd5b634e487b7160e01b600052601160045260246000fd5b90600091611fff9081810691820191828111610478576000527fe86309630a2abec088d5b96b65e4f174653522755626d469c576bd2ca75f209e6020526040600020541461054e5750565b9091506000526040600020549056fea2646970667358221220b3b9e217dbd1d086da741d6043b9f3d18783d158c0580ecf773ef3403bb80dd264736f6c63430008140033",
  "devdoc": {
    "events": {
      "BeaconRootSet(uint256,bytes32)": {
        "params": {
          "blockRoot": ": The beacon chain block root at the given timestamp",
          "timestamp": ": The timestamp of the beacon chain block"
        }
      },
      "Initialized(address)": {
        "params": {
          "_l1BeaconRootsSender": ": The address of the L1BeaconRootsSender contract on L1"
        }
      }
    },
    "kind": "dev",
    "methods": {
      "constructor": {
        "params": {
          "_messenger": ": The address of the L2 CrossDomainMessenger contract"
        }
      },
      "get(uint256)": {
        "params": {
          "_beacon_timestamp": ": The timestamp of the beacon chain block"
        }
      },
      "init(address)": {
        "details": "The flow is:       1) Deploy L2BeaconRoots on L2       2) Deploy L1BeaconRootsSender on L1 (passing the address of the deployed L2BeaconRoots to the constructor)       3) Initialize L2BeaconRoots with the L1BeaconRootsSender address",
        "params": {
          "_l1BeaconRootsSender": ": The address of the L1BeaconRootsSender contract"
        }
      },
      "set(uint256,bytes32)": {
        "params": {
          "_beaconRoot": ": The beacon chain block root at the given timestamp",
          "_beaconTimestamp": ": The timestamp of the beacon chain block"
        }
      }
    },
    "title": "L2BeaconRoots",
    "version": 1
  },
  "userdoc": {
    "events": {
      "BeaconRootSet(uint256,bytes32)": {
        "notice": "Event emitted when a beacon block root is setThe event can be emitted multiple times for the same block rootThe event can be emitted for block roots in the pastThe protocol does not guarantee that the event is emitted for every block root"
      },
      "Initialized(address)": {
        "notice": "Event emitted when the smart contract is initialized"
      }
    },
    "kind": "user",
    "methods": {
      "get(uint256)": {
        "notice": "Gets the beacon root for a given beacon chain timestamp"
      },
      "getCrossDomainMessenger()": {
        "notice": "Retrieves the address of the CrossDomainMessenger contract on the L2"
      },
      "getL1BeaconRootsSender()": {
        "notice": "Retrieves the address of the L1BeaconRootsSender contract on the L1"
      },
      "init(address)": {
        "notice": "Initialize the contract with the L1BeaconRootsSender address."
      },
      "set(uint256,bytes32)": {
        "notice": "Sets the beacon root for a given beacon chain timestampThis function must be called by the L1BeaconRootsSender contract on L1 through the OP CrossDomainMessenger"
      }
    },
    "notice": "The L2BeaconRoots contract stores the beacon chain block roots on the L2         It uses a ring buffer to store the block roots for up to the last 8191 beacon chain blocks",
    "version": 1
  },
  "storageLayout": {
    "storage": [
      {
        "astId": 325,
        "contract": "contracts/src/L2BeaconRoots.sol:L2BeaconRoots",
        "label": "L1_BEACON_ROOTS_SENDER",
        "offset": 0,
        "slot": "0",
        "type": "t_address"
      }
    ],
    "types": {
      "t_address": {
        "encoding": "inplace",
        "label": "address",
        "numberOfBytes": "20"
      }
    }
  }
}