{
  "address": "0xe094C96145fe094D3Cb6bF05d8cFD08E92f11BE5",
  "abi": [
    {
      "inputs": [
        {
          "internalType": "address",
          "name": "_l2BeaconRoots",
          "type": "address"
        }
      ],
      "stateMutability": "nonpayable",
      "type": "constructor"
    },
    {
      "inputs": [],
      "name": "L2_BEACON_ROOTS",
      "outputs": [
        {
          "internalType": "contract L2BeaconRoots",
          "name": "",
          "type": "address"
        }
      ],
      "stateMutability": "view",
      "type": "function"
    },
    {
      "inputs": [
        {
          "internalType": "uint256",
          "name": "_timestamp",
          "type": "uint256"
        },
        {
          "internalType": "bytes32[]",
          "name": "_proofs",
          "type": "bytes32[]"
        },
        {
          "internalType": "bytes32",
          "name": "_withdrawalsRoot",
          "type": "bytes32"
        }
      ],
      "name": "verify",
      "outputs": [
        {
          "internalType": "bool",
          "name": "",
          "type": "bool"
        }
      ],
      "stateMutability": "view",
      "type": "function"
    }
  ],
  "transactionHash": "0x1e3ddaad2d1c557bfa7ec1ea8372bd974150d008e242689f7bcbac852f77b420",
  "args": [
    "0xb53F763AB795e2A2C13613e25cc54939Ca01b4E1"
  ],
  "numDeployments": 1,
  "solcInputHash": "a157e738c91afa8cf3cbba2db2aa1381",
  "bytecode": "0x60a03461007357601f6104b738819003918201601f19168301916001600160401b038311848410176100785780849260209460405283398101031261007357516001600160a01b0381169081900361007357608052604051610428908161008f823960805181818161013501526101930152f35b600080fd5b634e487b7160e01b600052604160045260246000fdfe6080604052600436101561001257600080fd5b6000803560e01c908163167580cc1461003a5750633a46ad491461003557600080fd5b61011f565b346100e45760603660031901126100e45760243567ffffffffffffffff918282116100e457366023830112156100e45781600401359283116100e7578260051b6040519260209461008d868401866100fd565b8452602485850192820101923684116100e45750602401905b8282106100d5576100d16100bf60443586600435610175565b60405190151581529081906020820190565b0390f35b813581529084019084016100a6565b80fd5b634e487b7160e01b600052604160045260246000fd5b90601f8019910116810190811067ffffffffffffffff8211176100e757604052565b34610164576000366003190112610164576040517f00000000000000000000000000000000000000000000000000000000000000006001600160a01b03168152602090f35b600080fd5b6040513d6000823e3d90fd5b604051634a83e9cd60e11b81526004810191909152906020826024817f00000000000000000000000000000000000000000000000000000000000000006001600160a01b03165afa91821561026c57600092610239575b5081156101df576101dc92610271565b90565b60405162461bcd60e51b815260206004820152602c60248201527f4c32426561636f6e526f6f747356657269666965723a20426561636f6e20726f60448201526b1bdd081b9bdd08199bdd5b9960a21b6064820152608490fd5b90916020823d8211610264575b81610253602093836100fd565b810103126100e457505190386101cc565b3d9150610246565b610169565b929192600c8251036102ff579060009283925b82518410156102f5576001841b8061192e16146000146102da576102b2906102ac8585610357565b51610381565b925b60001981146102c65760010192610284565b634e487b7160e01b85526011600452602485fd5b6102ef906102e88585610357565b5190610381565b926102b4565b9250939250501490565b60405162461bcd60e51b815260206004820152602a60248201527f4c32426561636f6e526f6f7456657269666965723a20496e76616c69642070726044820152690dedecc40d8cadccee8d60b31b6064820152608490fd5b805182101561036b5760209160051b010190565b634e487b7160e01b600052603260045260246000fd5b9060408051916060830183811067ffffffffffffffff8211176100e757825281835260209384840183368237528183015251908051908360005b8381106103e05750505090806000928101838152039060025afa1561026c5760005190565b818184010151818601520184906103bb56fea264697066735822122005b5ae347414d8690a496344485cccb870caf0cd6ff2db075d86bb250519a5ea64736f6c63430008140033",
  "devdoc": {
    "kind": "dev",
    "methods": {
      "constructor": {
        "params": {
          "_l2BeaconRoots": ": The address of the L2BeaconRoots contract"
        }
      },
      "verify(uint256,bytes32[],bytes32)": {
        "params": {
          "_proofs": ": The Merkle proof",
          "_timestamp": ": The timestamp of the Beacon Block",
          "_withdrawalsRoot": ": The Withdrawals Root to verify"
        }
      }
    },
    "title": "L2BeaconRootsVerifier",
    "version": 1
  },
  "userdoc": {
    "kind": "user",
    "methods": {
      "verify(uint256,bytes32[],bytes32)": {
        "notice": "Verifies a Withdrawals Root Merkle proof for a given timestamp"
      }
    },
    "notice": "The L2BeaconRootsVerifier contract responsible for verifyring Beacon Block SSZ Merkle proofs",
    "version": 1
  },
  "storageLayout": {
    "storage": [],
    "types": null
  }
}