{
  "address": "0xB5c70f0CD8Ca5738E555FB76E9f1B82BF254fc5b",
  "abi": [
    {
      "inputs": [
        {
          "internalType": "address",
          "name": "_messenger",
          "type": "address"
        },
        {
          "internalType": "address",
          "name": "_l2BeaconRoots",
          "type": "address"
        }
      ],
      "stateMutability": "nonpayable",
      "type": "constructor"
    },
    {
      "inputs": [],
      "name": "BeaconRootMissing",
      "type": "error"
    },
    {
      "inputs": [],
      "name": "TimestampInTheFuture",
      "type": "error"
    },
    {
      "inputs": [],
      "name": "TimestampOutOfRing",
      "type": "error"
    },
    {
      "anonymous": false,
      "inputs": [
        {
          "indexed": false,
          "internalType": "uint256",
          "name": "timestamp",
          "type": "uint256"
        },
        {
          "indexed": false,
          "internalType": "bytes32",
          "name": "blockRoot",
          "type": "bytes32"
        }
      ],
      "name": "BlockRootSent",
      "type": "event"
    },
    {
      "inputs": [],
      "name": "getCrossDomainMessenger",
      "outputs": [
        {
          "internalType": "address",
          "name": "",
          "type": "address"
        }
      ],
      "stateMutability": "view",
      "type": "function"
    },
    {
      "inputs": [],
      "name": "getL2BeaconRoots",
      "outputs": [
        {
          "internalType": "address",
          "name": "",
          "type": "address"
        }
      ],
      "stateMutability": "view",
      "type": "function"
    },
    {
      "inputs": [
        {
          "internalType": "uint256",
          "name": "_timestamp",
          "type": "uint256"
        }
      ],
      "name": "sendBlockRoot",
      "outputs": [],
      "stateMutability": "nonpayable",
      "type": "function"
    },
    {
      "inputs": [],
      "name": "sendCurrentBlockRoot",
      "outputs": [],
      "stateMutability": "nonpayable",
      "type": "function"
    }
  ],
  "transactionHash": "0x968491abd7afb1684403fc78b30fb3d681c819d6427745bac38d0bd66f9cd853",
  "args": [
    "0x58Cc85b8D04EA49cC6DBd3CbFFd00B4B8D6cb3ef",
    "0x716d304cA10a4e8f418FeFC9c4E008EDDdd752bE"
  ],
  "numDeployments": 1,
  "solcInputHash": "e2dbfeb055bcb7180044bb2e108cbea3",
  "bytecode": "0x60c03461008657601f6105ca38819003918201601f19168301916001600160401b0383118484101761008b57808492604094855283398101031261008657610052602061004b836100a1565b92016100a1565b9060805260a05260405161051490816100b68239608051818181606201526101c9015260a05181818160a9015261023e0152f35b600080fd5b634e487b7160e01b600052604160045260246000fd5b51906001600160a01b03821682036100865756fe6040608081526004908136101561001557600080fd5b600091823560e01c9081634c548fa414610168578163d9ddd640146100d857508063dcecc30d146100955763f675fa621461004f57600080fd5b34610091578160031936011261009157517f00000000000000000000000000000000000000000000000000000000000000006001600160a01b03168152602090f35b5080fd5b5034610091578160031936011261009157517f00000000000000000000000000000000000000000000000000000000000000006001600160a01b03168152602090f35b838334610091576020366003190112610091578235428111610158578042034281116101455762017ff411156101355761011181610361565b918215610126575090610123916101a6565b80f35b51631e1393c960e21b81528490fd5b8151633d3d53cd60e21b81528490fd5b634e487b7160e01b845260118552602484fd5b815163173a7be760e31b81528490fd5b9050346101a257826003193601126101a25761018342610361565b918215610195578361012384426101a6565b51631e1393c960e21b8152fd5b8280fd5b906101b4611fff830661048c565b91613a9892610357575b60018060a01b0391827f000000000000000000000000000000000000000000000000000000000000000016604093845191602092633262778d60e11b8482015285602482015284604482015260448152608081019767ffffffffffffffff891193828a10851761031857898952833b1561035257633dbb202b60e01b8a527f0000000000000000000000000000000000000000000000000000000000000000166084830152606060a4830152815160e483018190528992918660005b8381106103395750506084838363ffffffff6000989694896101048a9882980101521660c4830152601f801991011681010301925af1801561032e576102ea575b507f4380331b13b9b22cafadc0bee4406bcf94ecb26bd720c64724f8fb495760a4b594508351928352820152a1565b610318577f4380331b13b9b22cafadc0bee4406bcf94ecb26bd720c64724f8fb495760a4b5948452386102bb565b634e487b7160e01b600052604160045260246000fd5b85513d6000823e3d90fd5b80850180830151610104909101528c955088910161027a565b600080fd5b61c35092506101be565b604080516020808201938452815267ffffffffffffffff9291810183811182821017610318576040526000809281925190720f3df6d732807ef1319fb7b8bb8522d0beac025afa3d1561043c573d8381116104285760405193601f8201601f19908116603f01168501908111858210176104145760405283523d82602085013e5b8061040a575b156104055760208280518101031261040257506020015190565b80fd5b905090565b50815115156103e8565b634e487b7160e01b84526041600452602484fd5b634e487b7160e01b83526041600452602483fd5b606092506103e2565b6020811015610476577f9bb4c3dbeacb2037aa5e0013b1b00d2951f101555d522a79ec9d5b7dd11c50a20190600090565b634e487b7160e01b600052603260045260246000fd5b8060081c60ff600161049d83610445565b92905494161b92839160031b1c166104d7576104b890610445565b819291549060031b9181831c17821b91600019901b1916179055600190565b505060009056fea2646970667358221220616a91cc146b694abd69b0e0de38f498e34fe730a732bb4915b9441ceced7cfb64736f6c63430008140033",
  "devdoc": {
    "events": {
      "BlockRootSent(uint256,bytes32)": {
        "params": {
          "blockRoot": ": The beacon chain block root at the given timestamp",
          "timestamp": ": The timestamp of the beacon chain block"
        }
      }
    },
    "kind": "dev",
    "methods": {
      "constructor": {
        "params": {
          "_l2BeaconRoots": ": The address of the L2BeaconRoots contract on the L2",
          "_messenger": ": The address of the CrossDomainMessenger contract on the L1"
        }
      },
      "sendBlockRoot(uint256)": {
        "params": {
          "_timestamp": ": The timestamp of the beacon chain block"
        }
      }
    },
    "stateVariables": {
      "BEACON_ROOTS": {
        "details": "https://eips.ethereum.org/EIPS/eip-4788"
      },
      "BEACON_ROOTS_HISTORY_BUFFER_LENGTH": {
        "details": "https://eips.ethereum.org/EIPS/eip-4788"
      }
    },
    "title": "L1BeaconRootsSender",
    "version": 1
  },
  "userdoc": {
    "errors": {
      "BeaconRootMissing()": [
        {
          "notice": "Beacont root is missing for the given timestamp."
        }
      ],
      "TimestampInTheFuture()": [
        {
          "notice": "Timestamp is in the future"
        }
      ],
      "TimestampOutOfRing()": [
        {
          "notice": "Timestamp out of range for the the beacon roots buffer ring."
        }
      ]
    },
    "events": {
      "BlockRootSent(uint256,bytes32)": {
        "notice": "Event emitted when a block root is sent to the L2The event can be emitted multiple times for the same block rootThe event can be emitted for block roots in the pastThe protocol does not guarantee that the event is emitted for every block root"
      }
    },
    "kind": "user",
    "methods": {
      "getCrossDomainMessenger()": {
        "notice": "Retrieves the address of the CrossDomainMessenger contract on the L1"
      },
      "getL2BeaconRoots()": {
        "notice": "Retrieves the address of the L2BeaconRoots contract on the L2"
      },
      "sendBlockRoot(uint256)": {
        "notice": "Sends a beacon block root to the L2Retrieves the block root from the official beacon roots contract and sends it to the L2"
      },
      "sendCurrentBlockRoot()": {
        "notice": "Sends beacon block root of the current block to the L2Retrieves the block root from the official beacon roots contract and sends it to the L2The beacon block root is for the parent beacon chain slot of the current block"
      }
    },
    "notice": "The L1BeaconRootsSender contract sends the beacon chain block roots to the L2BeaconRoots contract on the L2",
    "version": 1
  },
  "storageLayout": {
    "storage": [],
    "types": null
  }
}